:020000040800F2
:1000000058070020290200081908000811080008F4
:1000100015080008410300085517000800000000FB
:100020000000000000000000000000007909000846
:10003000E106000800000000950800087D0900089E
:10004000430200084302000843020008430200087C
:10005000430200084302000843020008430200086C
:10006000430200084302000843020008430200085C
:10007000430200084302000843020008430200084C
:100080004503000843020008430200084302000839
:10009000430200084302000843020008430200082C
:1000A000430200084302000843020008430200081C
:1000B0004302000843020008DD0A0008430200086A
:1000C00043020008430200084302000843020008FC
:1000D0004302000843020008991500084302000883
:1000E00043020008430200084302000843020008DC
:1000F00043020008430200084302000843020008CC
:1001000043020008430200084302000843020008BB
:10011000591500084302000843020008090B0008B3
:10012000430200084302000843020008430200089B
:10013000430200084302000843020008430200088B
:10014000430200084302000843020008430200087B
:10015000430200084302000843020008430200086B
:10016000430200084302000843020008430200085B
:10017000430200084302000843020008430200084B
:10018000430200084302000800F002F800F03CF8C7
:100190000AA090E8000C82448344AAF10107DA45E2
:1001A00001D100F031F8AFF2090EBAE80F0013F0F8
:1001B000010F18BFFB1A43F0010318477C380000F9
:1001C0009C380000103A24BF78C878C1FAD852078A
:1001D00024BF30C830C144BF04680C6070470000C1
:1001E0000023002400250026103A28BF78C1FBD840
:1001F000520728BF30C148BF0B6070471FB503F0DE
:100200006AFB1FBD10B510BD00F064F81146FFF782
:10021000F5FF01F07BFD00F082F803B4FFF7F2FF79
:1002200003BC00F085F800000948804709480047F2
:10023000FEE7FEE7FEE7FEE7FEE7FEE7FEE7FEE796
:10024000FEE7FEE704480549054A064B70470000F3
:10025000B50900088901000858010020580700204E
:10026000580300205803002010B5431C02E010F88A
:10027000011B71B18107FAD14FF0013202C88C1A0B
:100280008C4314EAC211F9D0C01A0A0603D0C01E6A
:1002900010BDC01A10BD0A0401D0801E10BD090295
:1002A000FCD0401E10BD70477047704710B500F07D
:1002B00009F8006810BD10B5044600F003F80460AA
:1002C00010BD0000004870475000002000487047F3
:1002D000500000207546FFF7F9FFAE46050069465D
:1002E000534620F00700854618B020B5FFF7AAFF57
:1002F000BDE820404FF000064FF000074FF0000827
:100300004FF0000BAC46ACE8C009ACE8C009ACE863
:10031000C009ACE8C00921F007018D46704710B54F
:100320000446AFF300802046BDE81040FFF775BFDC
:1003300001491820ABBEFEE726000200704700000E
:10034000FEE7000080B546F2880048F60001C4F2DE
:100350000200C2F2000100F00FF840F22C10C2F2CD
:1003600000000178407840EA012040F2BC014042A0
:10037000C2F20001088080BD10B546F20C4340F681
:100380007D7EC4F2020346F20802C0F67D7EC4F20E
:10039000020203F1040C8C0001EA0E0106D4604550
:1003A00028BF02F58062116010BD00BF604538BFF4
:1003B000131D196010BD00000268002922F001021F
:1003C00018BF013202607047016821F0010101602D
:1003D0000021016041608160C160016146F20F410E
:1003E000C4F2020188424FF02101416122DC46F251
:1003F0006F01C4F20201884240DC46F23F01C4F2C0
:100400000201884276DC46F21001C4F20201884201
:1004100000F0CA8046F22801C4F20201884201BFFE
:1004200046F20800C4F202004FF47461016008BF94
:10043000704701E146F26F41C4F2020188423BDCA1
:1004400046F23F41C4F20201884269DC46F21041A3
:10045000C4F20201884200F0AF8046F22841C4F2A3
:100460000201884201BF46F20800C4F202004FF4C4
:100470007461C0F8001408BF7047DDE046F29F01C8
:10048000C4F20201884263DC46F27001C4F2020148
:10049000884200F0998046F28801C4F20201884245
:1004A00040F0CA8046F20800C4F2020040F64071F3
:1004B000C2F200014160704746F29F41C4F202015E
:1004C00088425BDC46F27041C4F20201884200F0CF
:1004D000858046F28841C4F20201884218BF704705
:1004E00046F20C40C4F2020040F64071C2F2000134
:1004F0000160704746F24001C4F20201884277D0A1
:1005000046F25801C4F20201884201BF46F20800D7
:10051000C4F202004FF07461016008BF70478BE0C5
:1005200046F24041C4F20201884269D046F2584185
:10053000C4F20201884201BF46F20800C4F2020080
:100540004FF07461C0F8001408BF704774E000BF3A
:1005500046F2A001C4F2020188425BD046F2B80123
:10056000C4F20201884201BF46F20800C4F2020050
:100570004FF03D51416008BF70475DE046F2A04139
:10058000C4F2020188424FD046F2B841C4F20201DF
:10059000884201BF46F20C40C4F202004FF03D51C8
:1005A000016008BF704747E046F20800C4F202004D
:1005B0003D210160704700BF46F20800C4F202000E
:1005C0003D21C0F80014704746F20800C4F2020052
:1005D0003D21C2F200014160704700BF46F20C406D
:1005E000C4F202003D21C2F200010160704700BF69
:1005F00046F20800C4F202004FF474110160704723
:1006000046F20800C4F202004FF47411C0F800145E
:10061000704700BF46F208000021C4F20200C2F297
:100620003D014160704700BF46F20C400021C4F21A
:100630000200C2F23D010160704700000B0604D5C4
:1006400043695AB143F080034361802913D05AB102
:10065000026801F01E0111430CE000BF23F080028C
:100660008029426108BF70476FF01E02036862EA8A
:1006700001011940016070472DE9F04F026848F20E
:100680003F03CFF21C03D1F800901A40D1E9038E4A
:1006900001F1140C9CE8F01042EA090242EA080257
:1006A00022432A4332438B6A3A43D1E90DAB42EAF3
:1006B0000C021A4342EA0A0242EA0B020260426951
:1006C000D1E90B3722F007021A433A434261C0F8DE
:1006D00004E04A6882608968C160BDE8F08F00006C
:1006E000704700002DE9F04FD1F8009000234FF043
:1006F000020C4FF0010E4FF00308022510E000BF7E
:10070000C26802EA0A02C260CA79C468AA402243E7
:10071000C2600233102B05F1040508BFBDE8F08F5D
:100720000EFA03F419EA040F30D0A5F1020B0768A2
:1007300008FA0BF26FEA020A27EA020202600A795B
:10074000076802FA0BF6013A3E43012A066013D805
:10075000826802EA0A0282604A798E79876802FA20
:100760000BF23A4382604268A243426006FA03F207
:10077000446892B222434260C26802EA0A02C2603E
:10078000CA79C46802FA0BF22243C2600CFA03F77A
:1007900009EA0702BA42BCD1046808FA05F26FEA16
:1007A000020A24EA020202600A79046802FA05F6E3
:1007B000013A3443012A0460A2D8826802EA0A029C
:1007C00082604A798C798668AA40324382604268A6
:1007D0005E1CBA43426004FA06F2446892B22243B5
:1007E00042608DE71C2303EA810C6FF0030303EAE8
:1007F000510108440F23016A03FA0CF39943016283
:10080000016A02FA0CF211430162704741617047BC
:10081000FEE70000FEE700007047000010B5C17859
:1008200000294EF20011CEF200011DD04EF60C52FE
:10083000CEF200021268072323EA12220F23C2F12C
:10084000040C23FA02FE427884785FFA8CF390F865
:1008500000C09A4004EA0E031A43120101EB0C0394
:1008600083F8002301E000BF80310078012300F00D
:100870001F0203FA02F2C0F3421041F8202010BD1B
:1008800040F080604EF60C5140F0FD70CEF2000159
:100890000860704770470000002943F63001C4F239
:1008A00002010A680CBF22EA00001043086070478A
:1008B000002943F64001C4F202010A680CBF22EA93
:1008C0000000104308607047002943F64401C4F259
:1008D00002010A680CBF22EA00001043086070475A
:1008E00010B543F60401C4F202014A6802F00C0399
:1008F00042F20042082BC0F2F40207D0042B21D1AF
:1009000041F20022C0F27A021CE000BFD1F800C020
:10091000D1F800E00B680EF03F0EC3F388145FEAD5
:100920004C2341F20023C0F27A0358BF1346B3FBB5
:10093000FEF20B686243C3F30143022404EB43035A
:10094000B2FBF3F202604B6843F62824C3F30313AF
:10095000C0F60004E35CDA4042604B68C3F38223D4
:10096000E35C22FA03F383604968C1F34231615CBE
:1009700022FA01F1C16010BD7047000040F2B000E2
:10098000C2F20000416801310B29416010D30021FF
:1009900040F2B8024160C2F200021278012A18BF88
:1009A000704744F20442C4F20002792313800170BC
:1009B0007047000082B04EF6885CCEF2000CDCF886
:1009C000002043F6000142F47002C4F20201CCF8A8
:1009D00000200A684FF6FF7042F001020A60002210
:1009E0008A600B68CFF6F6601840086043F210008A
:1009F000C2F200404860086820F480200860CA60A5
:100A000001920092086840F480300860086800F4A1
:100A100000300090019801300190009818B90198B9
:100A2000B0F5A04FF2D10868800354BF0020012028
:100A30000090009801284BD1086C40F08050086469
:100A400047F20000C4F20000026842F44042026033
:100A500088688860886840F400408860886840F44E
:100A6000A050886045F20840C0F2407048600868B5
:100A700040F0807008600868800109D4086880012F
:100A80005CBF08685FEA801002D408688001F2D574
:100A900040F20570C1F80004886820F00300886007
:100AA000886840F002008860886800F00C00082820
:100AB0000ED0886800F00C00082809D0886800F083
:100AC0000C00082804D0886800F00C000828EBD13E
:100AD0004FF000604CF8800C02B0704740F6000008
:100AE000C4F200004FF6FE710182008840F25411FA
:100AF000C2F20001C0060A684FF0FF3058BF012063
:100B0000104408607047000041F21040C4F2000039
:100B10004FF6FE71018001F0DBB900000288002968
:100B200018BF012122F0800242EAC1110180704702
:100B30000288002918BF012122F00102114401801E
:100B400070470000B0F84420002918BF01216FF35E
:100B5000DF3242EAC131A0F844107047406A704762
:100B6000002A82890CBF22EA01011143818170476A
:100B7000B0B5028C40F2004522F001020284038CE1
:100B800040F48064C4F201058288B0F818C0AC4219
:100B90008C8923F002034D88B1F800E043EA040396
:100BA00043EA05030DD1CC8923F00C0324F004049F
:100BB0008D8823430C8A2B4322F440724D8A2243B2
:100BC0002A432CF0730545EA0E0582800583896867
:100BD00041630384B0BD0000028B22F00802114380
:100BE00001837047B0B5028C40F2004522F010023C
:100BF000028440F48064C4F20105038C8288B0F85A
:100C000018E0AC428C894D88B1F800C023F0200375
:100C100044EA050443EA041311D1CC896FF040057E
:100C200023F0C00305EA04148D88234343EA051327
:100C30000C8A4D8A22F440622C4342EA84022EF44C
:100C4000E64545EA0C258280058389688163038433
:100C5000B0BD0000028B22F4006242EA0121018350
:100C600070470000B0B5028C40F2004522F480725B
:100C7000028440F48064C4F20105038C8288B0F8D9
:100C80001CE0AC428C894D88B1F800C023F400739D
:100C900044EA050443EA042311D1CC8940F2FF451C
:100CA000240223F44063AC438D88234343EA0523A5
:100CB0000C8A4D8A22F440522C4342EA04122EF050
:100CC000730545EA0C05828085838968C1630384C6
:100CD000B0BD0000828B22F008021143818370476F
:100CE000F0B5028C40F2004722F480520284038C5B
:100CF0008288B0F81CE0B1F800C08C894D8840F4BF
:100D00008066C4F20107BE4204D10E8A22F48042FA
:100D100042EA86122EF4E64747EA0C278280878350
:100D200023F400532C43896843EA043201640284AB
:100D3000F0BD0000828B22F4006242EA012181832F
:100D4000704700004162704710B540F6FF32B0F8BE
:100D500000E0C4F2000240F2004C9042C4F2010CE8
:100D600010DCB0F1804F1AD040F20042C4F2000211
:100D7000904214D040F60002C4F2000290420ED01D
:100D800012E000BF40F60042C4F20002904206D0DA
:100D9000604504D00022C4F20102904204D14A8886
:100DA0002EF0700342EA030E41F2004340F48062E9
:100DB000C4F200039A4204D00C892EF4407344EA32
:100DC000030EA0F800E04B686245C3620B88038500
:100DD00004BF897A01860121818210BD2DE9F04F7F
:100DE00081B02DED0A8B04460078002800F0AA831C
:100DF00041F2000540F2B8079FED328A9FED329A2A
:100E00009FED32AA9FED32BA9FED32CA4FF0000932
:100E1000C4F20005C2F200074FF00A0A4FF0000BBF
:100E200019E000BF03217961F96B97ED0C0AF962B3
:100E300040F20001C2F20001C7F83490C863C7F85D
:100E4000249000F089FC20460BF1010BFFF70CFA0F
:100E5000834580F0778314F80B0041381228F2D8CC
:100E6000DFE810F016003A00540072008E00AC0269
:100E7000F0021400140014001400140014001400F4
:100E800014001400140014005C0300BFDBE700BF73
:100E900040F20000C2F20000C06BB0F5E16F09D172
:100EA000B869642806D197ED0D0AB5EE400AF1EE57
:100EB00010FAC8D07869642100284FF4E160B96164
:100EC000B2D1AFE70000E1449A99993F00000000D9
:100ED000666666BF6666663F40F20000C2F20000CA
:100EE000C06B48B9B869642806D197ED0D0AB5EE14
:100EF000400AF1EE10FAA6D07869642100284FF07C
:100F00000000B9617FF490AF8CE700BF40F20000B1
:100F1000C2F20000C06B10F5617F0AD1B869642885
:100F200007D197ED0D0AB5EE400AF1EE10FA3FF445
:100F30008AAF7869642100284FF67C40CFF6FF70B5
:100F4000B9617FF471AF6DE740F20000C2F20000BA
:100F5000C06BB0F5617F0AD1B869642807D197EDFD
:100F60000D0AB5EE400AF1EE10FA3FF46CAF786965
:100F7000642100284FF46170B9617FF455AF51E7E7
:100F800040F2000A4FF00A08C826C2F2000AC7F869
:100F90001890C7F8208000BF28460021FFF7D2FE36
:100FA0002846FFF7DBFDB0F57A7FF9D3013EF3D198
:100FB000B0EE480A1E20F0EE480AB0EE491A01F0E1
:100FC000DFF941F2707600BF28460021FFF7BAFE34
:100FD0002846FFF7C3FDB0F57A7FF9D3013EF3D180
:100FE000C826C7F81890C7F8208000BF28460021FF
:100FF000FFF7A8FE2846FFF7B1FDB0F57A7FF9D3D9
:10100000013EF3D1B0EE4A0A1E20F0EE4A0AB0EEDD
:10101000491A01F0B5F941F2707600BF2846002167
:10102000FFF790FE2846FFF799FDB0F57A7FF9D3D8
:10103000013EF3D1C826C7F81890C7F8208000BF3A
:1010400028460021FFF77EFE2846FFF787FDB0F512
:101050007A7FF9D3013EF3D1DAF83C0010F5E17F55
:1010600009D1B869142806D197ED0D0AB5EE400AEA
:10107000F1EE10FA17D0786900284FF01400B8612B
:1010800004BF03207861F86B97ED0C0AF8624FF605
:101090003E60CFF6FF70C7F83490CAF83C00C7F83E
:1010A000249000F059FB4FF4FA6600BF2846002157
:1010B000FFF748FE2846FFF751FDB0F57A7FF9D3D8
:1010C000013EF3D1C826C7F81890C7F8208000BFAA
:1010D00028460021FFF736FE2846FFF73FFDB0F512
:1010E0007A7FF9D3013EF3D1DAF83C0040F2465161
:1010F000884209D1B869142806D197ED0D0AB5EEDA
:10110000400AF1EE10FA15D0786900284FF014006B
:10111000B86104BF03207861F86B97ED0C0AF862A0
:1011200040F24650C7F83490CAF83C00C7F8249003
:1011300000F012FB4FF47A6628460021FFF702FE0A
:101140002846FFF70BFDB0F57A7FF9D3013EF3D1C6
:10115000C826C7F81890C7F8208000BF284600218D
:10116000FFF7F0FD2846FFF7F9FCB0F57A7FF9D3D9
:10117000013EF3D1DAF83C0010F5E17F09D1B869FE
:10118000142806D197ED0D0AB5EE400AF1EE10FADB
:1011900017D0786900284FF01400B86104BF03200D
:1011A0007861F86B97ED0C0AF8624FF63E60CFF667
:1011B000FF70C7F83490CAF83C00C7F8249000F0DC
:1011C000CBFA4FF4FA6600BF28460021FFF7BAFDBC
:1011D0002846FFF7C3FCB0F57A7FF9D3013EF3D17F
:1011E000C826C7F81890C7F8208000BF28460021FD
:1011F000FFF7A8FD2846FFF7B1FCB0F57A7FF9D3D9
:10120000013EF3D1DAF83C00B0F5E17F09D1B869CD
:10121000142806D197ED0D0AB5EE400AF1EE10FA4A
:1012200015D0786900284FF01400B86104BF03207E
:101230007861F86B97ED0C0AF8624FF4E170C7F82B
:101240003490CAF83C00C7F8249000F085FA4FF4B7
:10125000FA6600BF28460021FFF774FD2846FFF715
:101260007DFCB0F57A7FF9D3013EF3D1C826C7F8EB
:101270001890C7F8208000BF28460021FFF762FDC4
:101280002846FFF76BFCB0F57A7FF9D3013EF3D126
:10129000DAF83C004FF6BA21CFF6FF71884209D147
:1012A000B869142806D197ED0D0AB5EE400AF1EEA3
:1012B00010FA19D0786900284FF01400B86104BF03
:1012C00003207861F86B97ED0C0AF8624FF67C40CA
:1012D000CFF6FF70A0F5E170C7F83490CAF83C0073
:1012E000C7F8249000F038FA4FF47A6628460021B7
:1012F000FFF728FD2846FFF731FCB0F57A7FF9D3D8
:10130000013EF3D1C826C7F81890C7F8208000BF67
:1013100028460021FFF716FD2846FFF71FFCB0F511
:101320007A7FF9D3013EF3D1DAF83C00B0F5E17FE2
:1013300009D1B869142806D197ED0D0AB5EE400A17
:10134000F1EE10FA15D0786900284FF01400B8615A
:1013500004BF03207861F86B97ED0C0AF8624FF434
:10136000E170C7F83490CAF83C00C7F8249000F048
:10137000F3F94FF4FA6600BF28460021FFF7E2FCBC
:101380002846FFF7EBFBB0F57A7FF9D3013EF3D1A6
:101390004FF00A0AC826C7F81890C7F8208000BF87
:1013A00028460021FFF7CEFC2846FFF7D7FBB0F513
:1013B0007A7FF9D3013EF3D145E500BFB86A10F555
:1013C000E16F08D197ED0C0AB4EE4B0AF1EE10FA7A
:1013D00001D1386930B340F20000C2F20000C06BA6
:1013E00047F230518842B0EE4B0A0DD1F86B4D21D7
:1013F00010F5E16F56A0C7F814A0B961B8BF04306A
:1014000090ED000A0120B8634FF67C40CFF6FF70E4
:10141000A0F56170C7F8109087ED0C0AC7E9099034
:1014200000F09AF941F2707628460021FFF78AFC15
:101430002846FFF793FBB0F57A7FF9D3013EF3D14D
:1014400001E500BF4FF00A08C826C7F81890C7F892
:10145000208000BF28460021FFF774FC2846FFF7D4
:101460007DFBB0F57A7FF9D3013EF3D1B0EE480AA7
:101470002820F0EE4A0AB0EE4C1A00F081FF40F648
:10148000B83600BF28460021FFF75CFC2846FFF76E
:1014900065FBB0F57A7FF9D3013EF3D1C826C7F8D2
:1014A0001890C7F8208000BF28460021FFF74AFCAB
:1014B0002846FFF753FBB0F57A7FF9D3013EF3D10D
:1014C000B0EE4A0A2820F0EE480AB0EE4B1A00F0BF
:1014D00057FF40F6B83600BF28460021FFF732FC20
:1014E0002846FFF73BFBB0F57A7FF9D3013EF3D1F5
:1014F0004FF00A0AC826C7F81890C7F8208000BF26
:1015000028460021FFF71EFC2846FFF727FBB0F511
:101510007A7FF9D3013EF3D195E400BF4FF496787A
:10152000C7F81890C7F820A028460021FFF70AFC4A
:101530002846FFF713FBB0F57A7FF9D3B8F101081D
:10154000F2D180E4BDEC0A8B01B0BDE8F08F00BFA2
:10155000666666BF6666663F80B544F60040C4F2C4
:10156000000000F0EFF840F2B80CC2F2000CDCF81A
:101570005020C3B20CEB020181F85C00501C0A2B16
:10158000CCF8500018BF80BD01208CF8020000206C
:10159000CCF8500080BD000010B544F20044C4F205
:1015A0000004204640F2255100F03CF8E8B1204606
:1015B000202100F01BF840F2B000C2F20000A18828
:1015C0000278531CDCB2037040F23B10C2F2000000
:1015D000022C815438BF10BD0178407840EA0120C8
:1015E00040F2BC01C2F20001088010BDC943018075
:1015F000704700008289002918BF012122F400529F
:1016000042EA413181817047002A828A0CBF22EA76
:1016100001011143818270470088084018BF0120F2
:1016200070470000C1F34212022A07D0012A14BFFA
:1016300000F1140200F10C0202E000BF00F1100200
:101640001288008801F01F03090ADA40C8401040E0
:1016500000F0010070470000C1F3421301F01F0CBD
:101660001421022B08BF1021012B4FF0010308BFEA
:101670000C21002A03FA0CF243580CBF23EA0202A1
:101680001A4342507047000070B584B00446008A87
:101690000D46C98820F4405008432082A0894EF6A8
:1016A000F3110840A9882A896B890843104318431D
:1016B000A081A08AA98920F4407008436E46A082C8
:1016C0003046FFF70DF941F2004144F48060C4F266
:1016D0000101884214BF06F1080006F10C00006801
:1016E000B4F90C100122B1F1FF3FC8BF02222B68F0
:1016F0001921484303FA02F1B0FBF1F048F21F51FF
:10170000C5F2EB11A0FB01235A096FF0630302FB42
:101710000300B4F90C300326B3F1FF3FC8BF042621
:1017200000FA06F000F13200A0FB01014FF00700C3
:10173000C8BF0F2000EA511040EA0210208104B017
:1017400070BD000080886FF35F2070476FF35F21EA
:1017500081807047FEE700002DE9F04381B02DED58
:10176000068B82B040F20009C2F20009D9F83C00B1
:1017700047F2305140F2B806B0EE408A8842C2F2D9
:1017800000060BD100209FED8A0AC6E91100B5EED4
:10179000408AF1EE10FAF0647BD1B7E0F16BF26AA7
:1017A000401A104496ED0C1A99ED072A00EE100A23
:1017B000B8EEC00A99ED063A21EE021A30EE410A5F
:1017C00080EE03AA99ED0E0A20EE0A0A10EE100A26
:1017D00002F010F841EC100B00F0F6FE8DED000B5E
:1017E0009DF80700B0EE409A80F080008DF8070069
:1017F000706BDDE90045F0EE609A01F0FBFF80467A
:101800000F4653EC192B2046294601F005FF4246AE
:101810003B4601F001FF01F067FB99ED080A99EDE5
:101820000E1A3AEE000A21EE000A706410EE100A59
:1018300001F0E0FF41EC100B00F0C6FE51EC100B84
:1018400002460B4601F082FB01F04EFB99ED090ABE
:1018500099ED0E1A3AEE000A21EE000AB06410EE7D
:10186000100A01F0C7FF41EC100B00F0ADFE51EC87
:10187000100B9FED4D0B53EC102B01F0C3FD01F04D
:1018800033FB00EE100AB5EE408AF1EE10FAF06478
:101890003CD03069032839D8DFE800F00214202C4E
:1018A00096ED111A96ED122A31EE481A32EE482AB8
:1018B00030EE480A86ED111A86ED122A86ED130ADB
:1018C00024E000BF96ED121A30EE480A31EE481AB5
:1018D00086ED121A86ED130A18E000BF96ED111A74
:1018E00030EE480A31EE481A86ED111A86ED130AD9
:1018F0000CE000BF96ED111A96ED122A31EE481A4F
:1019000032EE482A86ED111A86ED122A96ED112A3A
:1019100096ED123AB1EE424AB5EE402A99ED001A20
:10192000F1EE10FAB8BFB0EE442AB1EE434AB5EE7C
:10193000403AF1EE10FAB8BFB0EE443AB1EE404A88
:10194000B5EE400AF1EE10FAB8BFB0EE440A9FEDD2
:10195000194AB8EEC11AB4EE442AF1EE10FAC8BF23
:10196000B0EE424AB4EE443AF1EE10FAC8BFB0EE1F
:10197000434AB4EE440AF1EE10FAC8BFB0EE404A52
:1019800081EE040A7169BDEEC00A10EE100A8142B0
:1019900086ED070AC8BF70610120F06002B0BDEC9F
:1019A000068B01B0BDE8F08300000000000000C01D
:1019B000000000006F12833A2DE9F04782B01F202B
:1019C00001214FF0010AFEF767FF40F20009C4F25F
:1019D00002094FF6FF7009F58066E846CDE9000A76
:1019E00030464146FEF77EFE09F50067384641461F
:1019F000FEF778FE09F5406528464146FEF772FE7F
:101A000009F5805420464146FEF76CFE30464FF6FD
:101A1000FF71FEF7FBFE38464FF6FF71FEF7F6FE4C
:101A200028464FF6FF71FEF7F1FE20464FF6FF7194
:101A3000FEF7ECFE49F6FF70CDE9000A4846414644
:101A4000FEF750FE48464FF6FF71FEF7DFFE02B08C
:101A5000BDE8F087F0B583B0022001210126FEF732
:101A600033FF04200121FEF717FF4FF4707040F29E
:101A70000044019040F20230C4F20104C0F20010B0
:101A800004F58235029001A92846FEF72BFE284670
:101A900006210322FEF7A6FE284607210322FEF7B1
:101AA000A1FE284608210322FEF79CFE28460921B4
:101AB0000322FEF797FE40F2B801C2F200014FF494
:101AC000C87041F8680FFF204860002720460F814A
:101AD000FFF73AF940F240157020C2F20005C0F25B
:101AE0000100286020462946AF60AF81FFF740F82B
:101AF00020460821FFF770F8204629466E80AF6027
:101B0000FFF770F820460821FFF7A4F82046294681
:101B10006E80AF60FFF7A6F820460821FFF7DAF8DD
:101B2000204629466E80AF60FFF7DAF8204608218C
:101B3000FFF700F920460121FEF7F0FF20460121C2
:101B4000FFF700F820460121FEF7F2FF03B0F0BDD9
:101B50002DE9F04196B005464FF4003001214FF4D5
:101B60000038FEF7A5FE01200121FEF795FE4FF497
:101B700000100121FEF790FE44F200440C20C4F254
:101B80000004009040F2022004F5DE360190694620
:101B90003046FEF7A7FD304602210722FEF722FE5F
:101BA0003046032107220326FEF71CFE4FF4402097
:101BB0000027049002A9204602950397ADF81470FF
:101BC000FFF762FD20460121FFF714FD4FF4A060EE
:101BD000FEF756FE1020C0F20010069006A8FEF791
:101BE0001DFE46F28805C4F202052846FEF7ECFB0E
:101BF0004FF00060079040F22C10C2F200000990F4
:101C00000A200B90201D08904FF48060CDE90D074D
:101C10004FF48070CDE91008042012A9C1C107A9B2
:101C200028460A970C970F971597FEF725FD204633
:101C300040210122FFF7E8FC284610210122FEF78F
:101C4000FDFC28460121FEF7B7FB16B0BDE8F08188
:101C50002DE9F04186B0804604200121FEF71CFEEC
:101C600044F60044C4F200044FF4806004F5DE360C
:101C70006F4600904FF48175304639460195FEF766
:101C800031FD4FF40060CDE9000530463946FEF7DE
:101C900029FD30460A210822FEF7A4FD30460B211B
:101CA0000822FEF79FFD4FF400200121FEF700FE01
:101CB00000204FF4402103900491ADF8140002A9D4
:101CC0002046CDF80880FFF7DFFC20462021FFF7F3
:101CD0008DFC204640F225510122FFF7BDFC204635
:101CE0000121FFF787FC4FF4E060FEF7C9FD40F2E9
:101CF000B8003421C2F20000C0F2001140F8061F03
:101D0000FEF78CFD06B0BDE8F081000084B040F223
:101D10004C00C2F20000006844F6D351C1F26201E7
:101D2000A0FB01014FF0FF3000EB9110B0F1807F7C
:101D300002D300BFFEE700BF4EF21001CEF2000159
:101D400048604EF62350CEF20000F02241F200042B
:101D5000027000260720C4F200048E600860FFF7BE
:101D60002BFEFFF777FE4FF4E130FFF7F1FE4FF463
:101D7000E130FFF76DFF102001210125FEF798FDEE
:101D80005320ADF804004FF6FF70029001A92046E1
:101D9000FEF7DAFF20460121FEF7CAFE20200121CE
:101DA000FEF786FD4FF44070FEF76AFD40F23730D3
:101DB000C0F20010019001A8FEF730FD40F2B80714
:101DC000C2F200074AF20F40394641F8680F4D60F1
:101DD00004F5806528460E81FEF7B6FF28460121EE
:101DE0000122FEF7BDFE28460121FEF7A1FE00F00C
:101DF0008FFB07F15C0500BFB87818B12846FEF7E5
:101E0000EDFFBE7020460021FEF79CFF2046FEF746
:101E1000A5FEB0F57A7FF9D320460021FEF792FFA8
:101E20002046FEF79BFEB0F57A7FF9D320460021CD
:101E3000FEF788FF2046FEF791FEB0F57A7FF9D3D2
:101E400020460021FEF77EFF2046FEF787FEB0F514
:101E50007A7FF9D320460021FEF774FF2046FEF773
:101E60007DFEB0F57A7FF9D320460021FEF76AFFA8
:101E70002046FEF773FEB0F57A7FF9D320460021A5
:101E8000FEF760FF2046FEF769FEB0F57A7FF9D3D2
:101E900020460021FEF756FF2046FEF75FFEB0F514
:101EA0007A7FF9D320460021FEF74CFF2046FEF74B
:101EB00055FEB0F57A7FF9D320460021FEF742FFA8
:101EC0002046FEF74BFEB0F57A7FF9D394E7000089
:101ED00010B540F2B804C2F20004B4F90430A26BA9
:101EE0005842022AE06334DBA16A5B1848BF5B42B8
:101EF000042B17D8501CB2F5FA7FA06329D940F201
:101F000000010020C2F2000147F230529FED890A21
:101F10002062CA63C4E90400A061A062C4E90C00A5
:101F2000A06314E0FB2A05D30422C4E90522FB22A6
:101F3000A26302E00522C4E90522B7EE000ABFEE63
:101F4000001A8142B8BFB0EE410A84ED0C0AFFF7D7
:101F500003FCD4E90501012922DB88423CD02BDABD
:101F6000E169884238DA40F20001C2F2000191EDE5
:101F70000A0A91ED0B1A02EE100A80EE011AB8EE71
:101F8000C22A616A4B1C636221EE021A30EE410ADA
:101F9000BDEEC00A10EE102A91421DDB012117E0B0
:101FA0000128C0F2A780D4E908214B1C914263624A
:101FB00012DB4FF0FF310BE040F20001C2F20001F2
:101FC000626A896C531C8A42636205DB6FF001010F
:101FD0000844606100206062D4E90F01814203D0AF
:101FE00000F0AAF8E06B2064E068002808BF10BD8C
:101FF00094ED050A40F2000294ED111AC2F20002BB
:10200000B8EEC00A92ED044A21EE001AB5EE401A6D
:10201000B0EE446A94ED122A94ED133AB1EE445AAC
:10202000F1EE10FAB8BFB0EE456A31EE061ABDEE19
:10203000C11A11EE104A22EE001AB5EE401AB0EEA7
:10204000442A23EE000AF1EE10FAB8BFB0EE452A9A
:1020500031EE021AB5EE400A40F6184040F238411F
:10206000BDEEC11AF1EE10FAB8BFB0EE454A30EE3F
:10207000040AC4F20200C4F2010111EE103ABDEEEE
:10208000C00A4CB1012C13DB0C604024448010EEDC
:10209000104A33B914E000BF146B0C6010EE104A04
:1020A00073B1012B16DB8B60022343805CB917E010
:1020B00064420C6040240480002B10EE104AF0D1E2
:1020C000136B8B6064B1012C0EDB4C6020214180CE
:1020D00010BD00BF5B428B6002230380002CF2D155
:1020E000106B486010BD00BF62424A602021018031
:1020F00010BD00BFA06B012840F20000C2F200003A
:1021000007DC002147F23052C4E90C112161C2639F
:10211000A162626A416B013262628A42A6BF616259
:102120000020006B40F23841C4F201010860886071
:10213000486010BD0000000070B540F2B801C2F266
:10214000000191ED0D0AB5EE400AF1EE10FA45D10D
:102150004C69002C42D0886A47F22F529042C8BF87
:1021600070BD91ED0C0AB5EE400AF1EE10FA37D0D1
:1021700040F20006C2F20006F26B47F23053B5EEB1
:10218000400A9A4254D1F1EE10FA04DDB368CA6BEA
:10219000C51AAA4209DCB5EE400AF1EE10FA42DA9D
:1021A000B368CA6B1D18AA423DDA8D6B012D15DC90
:1021B000B0EB020C48BFCCF1000CBCF1090F00F2EF
:1021C000A38070640020C1E90500086302209FED30
:1021D0006A0A8863BDE87040FFF7BEBA70BD00BFF1
:1021E000CA6AC96B40F20000C2F20000511A90EDB9
:1021F000030A01EE101AB8EEC11A20EE010AB5EE7C
:10220000400AF1EE10FA65D090ED041A02EE104A81
:10221000B5EE400AF1EE10FAB8EEC22A6BDB30EEF2
:10222000010A80EE020ABDE87040FFF795BA00BFD0
:10223000F1EE10FA1BDD03EE104A02EE100AB8EEC2
:10224000C33AB8EEC22A23EE003ACA6B32EE432AF2
:1022500096ED013A01EE102AB8EEC33AB8EEC11A73
:1022600032EE432AB4EE412AF1EE10FA20DBB5EE4D
:10227000400AF1EE10FAD6DA03EE104A02EE100A26
:10228000B8EEC33AB8EEC22A23EE003ACA6B32EE79
:10229000432A96ED013A01EE102AB8EEC33AB8EEA1
:1022A000C11A33EE022AB4EE412AF1EE10FABADD79
:1022B000801A01F07CF89FED2E0B53EC102B01F0EF
:1022C000A1F800F011FE00EE100AB5EE400AF1EEA2
:1022D00010FA05D19FED280ABDE87040FFF73CBA1F
:1022E00096ED041A02EE104AB5EE400AF1EE10FA2D
:1022F000B8EEC22A32DA30EE410A80EE020ABDE8B8
:102300007040FFF729BA00BF01EE104AB8EEC11ABB
:1023100002EE103A20EE010AB8EEC22A80EE020A5E
:1023200096ED052AB1EE403AB5EE400AF1EE10FA0C
:10233000B8BFB0EE430A03EE10CAB8EEC33A20EEBF
:10234000030A30EE020A9042D8BFB1EE400A80EE96
:10235000010ABDE87040FFF7FFB900BF31EE000A87
:1023600080EE020ABDE87040FFF7F6B900BF00BF7B
:102370009A9999999999C93F0000000000000000BE
:10238000F0B581B02DED048B40F20005C2F20005DE
:10239000B0EE418A95ED101A40F2B804B8EEC11AB9
:1023A000C2F20004A169B4EE401AB0EE609AF1EEF8
:1023B00010FA08BF814200F09780E66BEB6B01EEEC
:1023C000106AB8EEC11A30EE412ABDEEC22A12EEF2
:1023D000102ABDEEC00A934285ED100A08BF814263
:1023E00014D06169A061002904BF0320606194EDED
:1023F0000C0A0020E6626063EA636062FFF7ACF9F2
:10240000E66B00EE106AB8EEC01A06E094ED0D0A15
:10241000B5EE400AF1EE10FAE3D139EE410ABDEE15
:10242000C02A12EE100A0028BDEEC92A48BF404259
:10243000652812EE107A0DD3B1EE480AB4EE491AAF
:10244000F1EE10FAB8BFB0EE480A10EE100A01F033
:10245000D1F909E010EE100A01F0CCF99FED2A0B3A
:1024600053EC102B00F0CEFF41EC100B51EC100B95
:1024700000F03AFDA16A00EE100AB94208D194EDCD
:102480000C1AB4EE401AF1EE10FA01D12069A8B38B
:10249000E86B47F23051884219D10A21616147F255
:1024A0002F514D208F42A06111DCB5EE400A012072
:1024B000F1EE10FAA063C8BFBE4206DCB5EE400ADA
:1024C000F1EE10FAB8BFBE4201DAB1EE400A0020C8
:1024D000206184ED0C0AC4E90907BDEC048B01B04E
:1024E000BDE8F040FFF738B994ED0A1AB8EEC11A0A
:1024F000B4EE491AF1EE10FA7FF45FAFBDEC048B35
:1025000001B0F0BD00BF00BFFA7E6ABC7493683FA3
:10251000F0B581B041F20004C4F2000440F2B80604
:10252000C2F20006002004F55055307028466121A3
:10253000FFF70CF928464021FFF76EF80028F9D084
:10254000962700BF20460021FEF7FCFB2046FEF741
:1025500005FBB0F57A7FF9D3013FF3D1284661211D
:10256000FFF7F4F828464021FFF756F80028F9D085
:10257000962500BF20460021FEF7E4FB2046FEF72B
:10258000EDFAB0F57A7FF9D3013DF3D10120307037
:102590007920707001B0F0BD03B40198410000983B
:1025A00050EAC12018BF04204A0D18BF40F00100B6
:1025B00040F2FF72B2EB515F08BF40F00200012809
:1025C00008BF052002B0704710B52F499FED2C1BA6
:1025D0002DED020B84B0059820F000408842DCBF4E
:1025E00000209DED040B32DD2849884209D1049872
:1025F00040B94FF00100FDF75EFE00F03DFC06B073
:1026000010BD05DB9DED040B00F02AFC06B010BDEB
:1026100068469DED040B00F03BF810F0030011D06C
:10262000012818D09DED021B9DED000B02281AD049
:1026300000F04AFA51EC100B00F04AFC06B041ECF5
:10264000100B10BD9DED021B9DED000B012000F055
:102650006FFB06B010BD9DED021B9DED000B00F061
:1026600033FA06B010BD012000F062FB51EC100BF4
:1026700000F02EFC06B041EC100B10BD0000000075
:102680000000000000000000FB21E93F0000F07F97
:102690002DE9F14F04462DED020B2DED088B8AB08C
:1026A0009FEDE70B80ED020B139EE74826F00045F7
:1026B00085420ADC9DED120B002084ED000B0AB070
:1026C000BDEC088B03B0BDE8F08FE0489FEDE0ABB8
:1026D0009FEDE1BBA84247DDE14F9FEDE39B9FEDFE
:1026E000E48B9DED120B53EC1A2B51EC100B002ECA
:1026F0001CDD00F091FF41EC100BBD4208D053EC03
:102700001B2B51EC100B00F087FFC4E900010BE01C
:1027100053EC192B51EC100B00F07EFF53EC182BEF
:1027200000F07AFFC4E900010120C8E700F00EFCC8
:1027300041EC100BBD4208D053EC1B2B51EC100B9D
:1027400000F004FCC4E900010BE053EC192B51EC40
:10275000100B00F0FBFB53EC182B00F0F7FBC4E967
:1027600000014FF0FF30AAE7C348A84279DB9DED96
:10277000120B51EC100B00F09FFB41EC180B9FED7E
:10278000C00B53EC102B00F03DFE9FEDBF1B53EC34
:10279000112B00F0DBFB00F0DBFD074600F007FE2D
:1027A00041EC190B53EC1A2B00F02CFE53EC182BB8
:1027B00000F026FF41EC180B53EC1B2B51EC190BCE
:1027C00000F020FEDFF8C8A241EC100B4FEA1558CC
:1027D0000125FA4453EC102B51EC180B00F01CFFB0
:1027E000032DC4E900013DD0C1F30A5005EB4511AA
:1027F000A8EB00001139814234DA0AEB051BB0EE78
:1028000048AA9BED000BF0EE68AA53EC102B51EC9C
:10281000190B00F0F7FD41EC1B0B51EC1A0B53ECBC
:102820001B2B00F0F9FE41EC180B51EC1A0B53EC8A
:10283000182B00F0F1FE53EC1B2B00F0EDFE9BED8E
:10284000020B41EC1A0B53EC102B51EC190B00F05E
:10285000D9FD53EC1A2B00F0DFFE41EC100B6D1C80
:10286000B8E70EE0002EA8BF3846BFF628AF94EDBB
:10287000000B51EC100B00F02BFBC4E90001784277
:102880001DE7C6F3130040F4801EC6F30A50A0F201
:10289000F530471100F01F05C5F12000DDF848B004
:1028A00008900020069007900520EC467949002DFD
:1028B00007EB0002794408BF51F8221009D051F803
:1028C000223001EB8201AB404A68089922FA01F1FB
:1028D0001943A1FB0E26A1FB0B131A449A4234BFE5
:1028E0000123002303EB06080CEB8003D3E901A6C8
:1028F0000E448E4234BF0121002192448A4411B11A
:10290000924502D903E0924501D2012100E0002165
:10291000C3E901A641444CF82010011EA0F10100BA
:10292000C4DC029800F10050850F0298DDE90367CE
:102930008000DDF8148000F03AFD41EC1A0B3046BF
:1029400000F04CFD9FED541B53EC112B00F05AFD91
:1029500041EC1B0B384600F041FD9FED511B53EC41
:10296000112B00F04FFD41EC180B404600F036FDF6
:102970009FED4D1B53EC112B00F044FD41EC190B66
:1029800051EC180B53EC192B00F0E0FA53EC1B2B15
:1029900000F0DCFA53EC1A2B00F0D8FACDE908016C
:1029A000002008909DED080B53EC1A2B51EC100BF6
:1029B00000F032FE53EC1B2B00F02EFE53EC182BD4
:1029C00000F02AFE53EC192B00F01AFE9FED381B85
:1029D00053EC112B00F016FD9FED370B41EC180B5B
:1029E00053EC102B9DED080B51EC100B00F00AFD81
:1029F00053EC182B00F0AAFA9FED310B41EC180BA9
:102A000053EC102B9DED080B51EC100B00F0FAFC71
:102A100053EC182B00F09AFA41EC100B139810F0BD
:102A2000004F06D06D4251EC100B00F051FA41EC12
:102A3000100B284684ED000B41E60000000000006A
:102A40000000000000000000FB21E93F7CD90240AB
:102A500000004054FB21F93F3163621A61B4D03D5C
:102A6000FB21F93F000000000000601A61B4D03D76
:102A70007370032E8A19A33BFB213941000000002B
:102A800083C8C96D305FE43F000000000000E03FF4
:102A90005A110000A8100000000000000000103EC5
:102AA000000000000000103C000000000000103A90
:102AB000182D4454FB21F93D3326A611460B113C39
:102AC00000000054FB21F93D10B52DED040B2DED58
:102AD000088B82B0B0EE419AF0EE619A0B9820F02C
:102AE00000449FED4BABB4F1795F11DA9DED0A0B19
:102AF00051EC100B00F02CFC002801BFB0EE4A0A8C
:102B0000F0EE6A0A02B0BDEC088B04BF04B010BD41
:102B10009DED0A0B53EC102B51EC100B00F072FCE6
:102B200041EC180B3C480621B0EE480AF0EE680A6A
:102B3000784400F081F853EC182B51EC100B00F0A6
:102B400061FC9DED0A0B41EC1B0B53EC192B51EC76
:102B5000100B00F057FC41EC190B53EC1B2B51EC04
:102B6000180B00F04FFC53EC192B00F055FD9FEDB6
:102B70002C0B41EC190B53EC102B51EC180B00F003
:102B800041FC41EC100B2848844210DA53EC192B1D
:102B900051EC100B00F040FD53EC1A2B00F030FD0F
:102BA00041EC100B02B0BDEC088B04B010BD1F4807
:102BB000A042BCBF9FED1E1B8DED001B06DBA4F5E4
:102BC00000100190002000909DED001B51EC100BB7
:102BD00053EC112B00F020FD9DED000B41EC180B88
:102BE00053EC102B51EC1A0B00F016FD41EC1A0BB4
:102BF00053EC192B51EC180B00F00EFD53EC1A2B73
:102C000000F0FEFC41EC100BCCE7000000000000DF
:102C1000000000000000F03FCC0D000000000000AC
:102C2000000000000000E03F3333D33F0000E93FE5
:102C3000000000000000D23F70B504462DED028B6D
:102C40004D1E00EBC500B0EE408AF0EE608A90EDBC
:102C5000000B35F0060017D053EC182B51EC100B7D
:102C600000F0D0FB41EC100B6D1E04EBC50090EDA5
:102C7000001B51EC100B53EC112B00F067F941ECE9
:102C8000100B35F00600E7D1022D36D0042D1CD0F4
:102C9000062D1CBFBDEC028B70BD53EC182B51EC04
:102CA000100B00F0AFFB94ED0A1B53EC112B00F05E
:102CB0004DF953EC182B00F0A5FB94ED081B53ECD9
:102CC000112B00F043F941EC100B53EC182B51EC95
:102CD000100B00F097FB94ED061B53EC112B00F04A
:102CE00035F953EC182B00F08DFB94ED040B53ECED
:102CF000102B00F02BF941EC100B53EC182B51EC7E
:102D0000100B00F07FFB94ED021B53EC112B00F035
:102D10001DF953EC182B00F075FB94ED001B53ECE0
:102D2000112B00F013F9BDEC028B41EC100B70BDC0
:102D300031B504462DED040B2DED0A8BB0EE41BAF2
:102D4000F0EE61BA0B989DED0A0B20F00040B0F157
:102D5000795F0DDA51EC100BFFF71EFC042808BF59
:102D600000F09AF89DED0A0BBDEC0A8B05B030BD62
:102D700053EC102B51EC100B00F044FB41EC180B02
:102D80009DED0A0B53EC182B51EC100B00F03AFBA5
:102D900041EC190B2C48B0EE480AF0EE680A052108
:102DA0007844FFF749FF9FED2ACBB0EE40AAF0EE42
:102DB00060AA9CB353EC1C2B51EC190B00F022FBC6
:102DC00041EC1C0B53EC1A2B51EC190B00F01AFBC5
:102DD0009FED210B41EC190B53EC102B51EC1B0B0D
:102DE00000F010FB53EC192B00F016FC53EC182BE1
:102DF00000F008FB53EC1B2B00F00EFC53EC1C2BDB
:102E000000F00AFC9DED0A1B53EC112B00F0F8FBBF
:102E1000BDEC0A8B05B041EC100B30BDFFE753EC65
:102E20001A2B51EC180B00F0EDFA53EC1C2B00F0B0
:102E30008DF853EC192B00F0E5FA9DED0A1B53ECCD
:102E4000112B00F083F8E3E75C0C000000000000A9
:102E5000495555555555C5BF000000000000E03FDD
:102E600010B553EC102B51EC100B00F06FF841EC47
:102E7000100B10BD000000009FED050B10B553ECCA
:102E8000102B51EC100B00F009F941EC100B10BDA8
:102E900000000000000000009FED050B10B553EC92
:102EA000102B51EC100B00F0ADFA41EC100B10BDE3
:102EB000000000000000001082B0CDE9000121F008
:102EC000004001909DED000B02B051EC100B7047DB
:102ED00081F00041704780F00040704721F00041D0
:102EE000704720F00040704721F0004201F000439D
:102EF000A2F16052B2F5801F28BFD2F17F6C0BD9CE
:102F00005FEA001C43EAC20242EB507018BF7047F0
:102F100028BF20F001007047B2F5801FBCBF1846E3
:102F200070474FEA410C1CF5001F02D2084600F022
:102F3000DFBC70B500F010FB00000089FFF7F6BFA2
:102F40004FF00040A0F580007047000010B591EAF6
:102F5000030F48BF83F0004300F16683841A71EBCE
:102F6000030C05D2121943EB0C03001B61EB0C019F
:102F70004FEA1154A4EB135CDFF81CE11EEA430F87
:102F800018BF9EEA445F00F0748021EA045123EAEE
:102F90000E0343F48013DCF1200E32D322FA0CFE30
:102FA00010EB0E0023FA0CFE41EB0E01CCF1200ECB
:102FB00003FA0EFE10EB0E00CCF1200E51F10001D1
:102FC000B1F5801F32D201EB045112FA0EF2BDE8C6
:102FD000104058BF7047401C38BF5FEA420218BF1C
:102FE0007047002814BF20F0010041F100014FEAB2
:102FF000410313F5001F38BF7047A1F1C04100F035
:10300000F9BA012A43EB0302ACF1200CDCF11F0EEC
:1030100032BF4FF0000E23FA0CF310EB030041EB2C
:103020000451B4EB115FD0D0A1EB045101F5801134
:10303000490801EB04515FEA30000ED350F1000063
:1030400038BF12FA0EFE08D1BDE81040C9E7401C97
:1030500038BF5FEA4202CAD1C3E7BDE810404FEA79
:10306000410313F5001F38BF7047A1F1C04100F0C4
:10307000C1BA9EEA445F08D011EA5E0FBDE8104075
:1030800004BF01F0004100207047BDE8104070B55A
:1030900000F062FA64FBBE3E0000E0FF2DE9C04193
:1030A00030B4DFF8A4C23CEA111418BF3CEA131490
:1030B00000F0ED801CEA111481EA030544EAD5749E
:1030C00018BF1CEA131500F0C880A4EB050404F136
:1030D0007F7404F500344FF0004545EAC12145EA0C
:1030E000C32341EA505143EA52534FEAC0204FEA0A
:1030F000C222994208BF904200F09D804FEA1365BA
:103100000FF24416765D4FEA134506FB05F7C7F14B
:10311000807706FB07F74FEAD737A7FB03687642AD
:10312000A7FB06CEC8F5803838BFA8F1010807FB19
:1031300008E6A6FB028C4FF0000EE6FB03CEDCF1A6
:10314000000CCEF1004E38BFAEF1010EA6FB0C58BC
:103150004FF00007E6FB0E87A1FB08C6A0FB07CED9
:1031600016EB0E064FF0000545F10005E1FB076583
:1031700015F1E04E7EBFA4F580345FEA46066D414E
:1031800016F1800745F100054FEA172747EA056762
:103190004FEA15254FEA0666A6F1DE46B6F1805FD6
:1031A00020D9384605EBC47124F0010C01EB0C1159
:1031B000BCF1FE6F02D8F0BCBDE8008124425CBFC8
:1031C00001F5801E9EEAC47F02D4F0BCBDE80081F8
:1031D000244200F13980A1F1C041F0BCBDE80041BA
:1031E00000F008BA4FEAD02040EA41504FEAD1211E
:1031F0004FEAD22242EA43524FEAD323A7FB028688
:1032000007FB036605FB02661EEA0E0F58BFA6EB1E
:103210000056B6EB00564FEA520E4EEAC37E18EB4C
:103220000E0E56EB530EBCD518EB02085E417F1C08
:1032300055F10005B5E74FF480154FF000074FF04A
:1032400000064FF00008ACE701F1C04101F0004179
:103250004FF00000F0BCBDE800810CEA131511EA44
:103260000C1F00D00CE013EA0C1F00F026804FF07A
:10327000000081EA030101F00041F0BCBDE80081DB
:10328000F0BCBDE8004181EA030100F0B3B9F0BC35
:10329000BDE8004170B500F05FF900BF097EFC3E5B
:1032A00000F007B84FF0000081EA030101F000418F
:1032B000704781EA030100F09DB9F0BCBDE8004110
:1032C00022494FF000007047FFFDFBF9F7F5F4F2DB
:1032D000F0EEEDEBE9E8E6E4E3E1E0DEDDDBDAD8B1
:1032E000D7D5D4D3D1D0CFCDCCCBCAC8C7C6C5C40F
:1032F000C2C1C0BFBEBDBCBBBAB9B8B7B6B5B4B326
:10330000B2B1B0AFAEADACABAAA9A8A8A7A6A5A410
:10331000A3A3A2A1A09F9F9E9D9C9C9B9A999998D4
:103320009797969595949393929191908F8F8E8E77
:103330008D8C8C8B8B8A8989888887878685858404
:1033400084838382828181800000FF070000F87FF0
:103350004FEA41034FEA5353A3F58063D3F11E03B1
:10336000C8BFD3F1210C0CDD4FF0004242EAC1226C
:1033700042EA505232FA03FC8CEAE17CACEBE17099
:103380007047102BC4BF0020704703F5787CBCF158
:10339000FF3F04D06FF0004282EA2100704770B511
:1033A00000F0DAF84992248000207047F2E710F02C
:1033B000004248BF4042B0FA80F310FA03F10AD04D
:1033C000C3F11D0303F5806302EB03524FEA415042
:1033D00002EBD12170474FF000007047B0FA80F344
:1033E00010FA03F10AD0C3F11D0303F580634FEA1D
:1033F00003524FEA415002EBD12170474FF00000D9
:103400007047000070B5DFF848C11CEA111E1EBFEE
:103410001CEA13159EEA0C0F95EA0C0F00F06F8062
:1034200081EA03044EEAD47EAE4421EA4C1123EA39
:103430004C1341F4801143F48013AEF17F7EA1FB65
:10344000024CA0FB0365361955EB0C05A1FB034CA0
:103450004CF10003A0FB021C16EB0C06654153F176
:103460000003094218BF46F0010613F4007F0BD198
:103470004FEA03314FEA053041EA155140EA165050
:1034800034036FF003020AE04FEAC3214FEAC5207C
:1034900041EA555140EA5650F4026FF0020202EB45
:1034A0002E4201EB025585EACE710AD05FEA440C48
:1034B00018BF24F0004450F1000041F1000120EA5F
:1034C000D47040F2FE7C624500D270BDA84214BFA9
:1034D0004FF080444FF04044002E08BF0024BEF15E
:1034E000806FA8BFA1F1C041BDE8704080F282802A
:1034F00001F1C04101F000414FF0000070470CEABB
:1035000013159EEA0C0F18BF95EA0C0F06D081EA3E
:10351000030E4FF000000EF0004170BD00F01CF8EB
:103520008900013E00F007B800F009B84FEA430CEB
:103530005FEA5C5C08D081EA030100F05BB84FEA07
:10354000410C5FEA5C5CF6D102494FF00000704725
:103550000000FF070000F87F0EF1020E2EF0030EB0
:103560005EF8046B364205D4012A43EB030515F5DA
:10357000001F12D8012841EB010C1CF5001F0CD8CC
:103580000ED14FEAD17C0CEB4C0C0CF1020C15F572
:10359000001F08BF4CEBD37C04E04FF0080C01E0A7
:1035A0004FEAD37C0CEB4C0526FA05F606F007062D
:1035B000B6F1040C06D20EEB860CBDE870404CF060
:1035C000010C6047DFE80CF0090B02024FF00041EC
:1035D000A1F500214FF0000070BD194610460128EA
:1035E00051EB010418BFD4F5001484BF002001F092
:1035F000004170BD0808A0F500114FEA3101704785
:1036000010B591EA030F81F000413FF5A7AC83F0BC
:10361000004300F009B8000010B591EA030F48BF5D
:1036200083F000433FF59AAC841A71EB030C07D288
:103630008CF0004C121943EB0C03001B61EB0C01E6
:103640004FEA1154A4EB135CDFF8A4E11EEA430F28
:1036500018BF9EEA445F00F0B48021EA045123EAD7
:103660006E035242C3EB6E0338BF5B1EDCF1200ECB
:1036700025D322FA0CFE10EB0E0043FA0CFE41EBB0
:103680000E01CCF1200E03FA0EFE10EB0E00CCF171
:10369000200E51F1000129D401EB045112FA0EF26F
:1036A000BDE8104058BF7047401C1CBFB2F1004F2E
:1036B000704700280CBF491C20F00100704712EB36
:1036C000020E43EB030218BF4FF0010E4EEA420216
:1036D000ACF1200CDCF11E0E56D943FA0CFE10EBB7
:1036E0000E00CCF11E0E51F1FF31D5D50EF1010EB9
:1036F00012FA0EFE404141EB010101EB445C5FEA2E
:103700005C5C10D901EB045110EBDE7038BFBEF1E8
:10371000004FBDE8104018BF704700280CBF491C7F
:1037200020F00100704734D24FEAD42C24F4006416
:1037300011F500111BD0B1FA81F20B3AA41AA41EA4
:10374000D2F12003914030FA03F31943904001EB8A
:10375000CC7101EB0451002CBDE81040A8BF7047AC
:1037600001F1C04101F000414FF000007047B0FA94
:1037700080F310FA03F102D1BDE810407047E41A5B
:10378000173C4805C90AE2E701EB0451BDE81040C7
:10379000704749104FEA300001EB0451BDE810407A
:1037A00002E04FF0000170474A0008BF0042F8D025
:1037B000B2F5001F28BF704701F000414FF0000034
:1037C00070479EEA445F07D011EA5E0FBDE81040E3
:1037D00004BF002100207047BDE8104070B5FFF71E
:1037E000BBFE00BF40DFF63E104683F0004170474D
:1037F0000000E0FF43004FEAD30C4FEA3C0C43408B
:103800001FBF40070CF1605113F0FE4F70471CF0D2
:10381000006F03D10CF00041002070470CF0004312
:1038200043EA507040EACC0010B500F00EF800BF3B
:10383000000000924FEA0001FFF7DCBE4FF00041AC
:10384000A1F500214FF0000070470EF1020E2EF09E
:10385000030E5EF8044B244204D44FEA4102B2F155
:103860007F4F11D84FEA4003B3F17F4F0CD80ED1F0
:103870004FEAD07C0CEB4C0C0CF1020CB2F17F4FF8
:1038800008BF4CEBD17C04E04FF0080C01E04FEA9C
:10389000D17C0CEB4C0324FA03F404F00704B4F1DC
:1038A000040C06D20EEB840CBDE810404CF0010C69
:1038B0006047DFE80CF0070802024FF00040A0F577
:1038C000800010BD0846420018BFD2F1807288BF48
:1038D00000F0004010BDF1EE100A4FF6FF71C0F28B
:1038E000C03120EA010040F04070E1EE100A70475C
:1038F000FF2141EAD050C0057047000000000000E1
:103900004C5555555555A53F7751C1166CC156BFFD
:103910009015CB19A001FA3EAD529C804F7E92BE0D
:10392000C4B1B4BD9EEE213ED43888BEE9FAA8BD2C
:1039300000004054FB21F93F3163621A61B4D03D6D
:103940000000601A61B4D03D7370032E8A19A33B46
:103950000000002E8A19A33BC14920259A837B3998
:1039600000000000000000006E83F9A22915444EFB
:10397000D15727FCC0DD34F5999562DB4190433C7B
:10398000AB6351FE61C5BBDE3A6E24B7E0D24D4257
:10399000EA2E49061C92D1091CEB1DFE3EA729B157
:1039A000F53582E88444BB2E26709CE9417E5FB4E5
:1039B00039D69139F43953838B5F849C3B28F9BD08
:1039C000FF97F81F0F9805DE8B112FEF1F6D0A5A16
:1039D000CF7E366DB709CB27663F464F2DEA5F9EF7
:1039E000C7BA27757BF1E5EBF739073DEA92528AB2
:1039F000B15FFB6B085D8D1F463003560000000071
:103A0000A6F810111111813FD561C119A0012ABF7B
:103A10007DFEB157E31DC73EEB9C2B8AE6E55ABEFF
:103A20007CD5CF5A3AD9E53D0000000001020304DD
:103A30000102030406070809583A000800000020A4
:103A400050000000C4010008A83A000850000020FF
:103A500008070000E0010008FE000000640000000C
:103A6000C80000000000803E0000003F0000C04091
:103A7000000020410000F041000070420000F042D0
:103A8000000048420000164302000000E803000066
:103A900035FA8E3C3075000030750000307500003E
:083AA00007000000007A030A90
:040000050800018965
:00000001FF
